{
  "contractName": "Lottery",
  "abi": [
    {
      "constant": true,
      "inputs": [],
      "name": "ticketPrice",
      "outputs": [
        {
          "name": "",
          "type": "uint64"
        }
      ],
      "payable": false,
      "stateMutability": "view",
      "type": "function"
    },
    {
      "constant": true,
      "inputs": [
        {
          "name": "",
          "type": "uint256"
        }
      ],
      "name": "ticketMapping",
      "outputs": [
        {
          "name": "",
          "type": "address"
        }
      ],
      "payable": false,
      "stateMutability": "view",
      "type": "function"
    },
    {
      "constant": true,
      "inputs": [],
      "name": "ticketsBought",
      "outputs": [
        {
          "name": "",
          "type": "uint256"
        }
      ],
      "payable": false,
      "stateMutability": "view",
      "type": "function"
    },
    {
      "constant": true,
      "inputs": [],
      "name": "ticketMax",
      "outputs": [
        {
          "name": "",
          "type": "uint64"
        }
      ],
      "payable": false,
      "stateMutability": "view",
      "type": "function"
    },
    {
      "constant": true,
      "inputs": [],
      "name": "winnerAddress",
      "outputs": [
        {
          "name": "",
          "type": "address"
        }
      ],
      "payable": false,
      "stateMutability": "view",
      "type": "function"
    },
    {
      "payable": true,
      "stateMutability": "payable",
      "type": "fallback"
    },
    {
      "anonymous": false,
      "inputs": [
        {
          "indexed": true,
          "name": "_purchaser",
          "type": "address"
        },
        {
          "indexed": false,
          "name": "_ticketID",
          "type": "uint256"
        }
      ],
      "name": "LotteryTicketPurchased",
      "type": "event"
    },
    {
      "anonymous": false,
      "inputs": [
        {
          "indexed": true,
          "name": "_winner",
          "type": "address"
        },
        {
          "indexed": false,
          "name": "_ticketID",
          "type": "uint64"
        },
        {
          "indexed": false,
          "name": "_amount",
          "type": "uint256"
        }
      ],
      "name": "LotteryAmountPaid",
      "type": "event"
    },
    {
      "constant": false,
      "inputs": [
        {
          "name": "_ticket",
          "type": "uint16"
        }
      ],
      "name": "buyTicket",
      "outputs": [
        {
          "name": "",
          "type": "bool"
        }
      ],
      "payable": true,
      "stateMutability": "payable",
      "type": "function"
    },
    {
      "constant": false,
      "inputs": [],
      "name": "sendReward",
      "outputs": [
        {
          "name": "",
          "type": "address"
        }
      ],
      "payable": false,
      "stateMutability": "nonpayable",
      "type": "function"
    },
    {
      "constant": true,
      "inputs": [],
      "name": "lotteryPicker",
      "outputs": [
        {
          "name": "",
          "type": "uint64"
        }
      ],
      "payable": false,
      "stateMutability": "view",
      "type": "function"
    },
    {
      "constant": true,
      "inputs": [],
      "name": "getTicketsPurchased",
      "outputs": [
        {
          "name": "",
          "type": "address[6]"
        }
      ],
      "payable": false,
      "stateMutability": "view",
      "type": "function"
    }
  ],
  "bytecode": "0x60806040526714d1120d7b1600006000806101000a81548167ffffffffffffffff021916908367ffffffffffffffff1602179055506005600060086101000a81548167ffffffffffffffff021916908367ffffffffffffffff160217905550600060085534801561006f57600080fd5b50610d898061007f6000396000f300608060405260043610610099576000357c0100000000000000000000000000000000000000000000000000000000900463ffffffff16806304bccf7a146101075780631149a81a146101465780631209b1f61461019d5780634eefee34146101dc5780637cdcc30e146102185780637f702e801461026b578063af4a047a146102d8578063e3075e4e14610303578063ed7a4e0b14610342575b6040517f08c379a00000000000000000000000000000000000000000000000000000000081526004018080602001828103825260128152602001807f526576657274205472616e73616374696f6e000000000000000000000000000081525060200191505060405180910390fd5b34801561011357600080fd5b5061011c610399565b604051808267ffffffffffffffff1667ffffffffffffffff16815260200191505060405180910390f35b34801561015257600080fd5b5061015b610522565b604051808273ffffffffffffffffffffffffffffffffffffffff1673ffffffffffffffffffffffffffffffffffffffff16815260200191505060405180910390f35b3480156101a957600080fd5b506101b2610783565b604051808267ffffffffffffffff1667ffffffffffffffff16815260200191505060405180910390f35b6101fe600480360381019080803561ffff16906020019092919050505061079c565b604051808215151515815260200191505060405180910390f35b34801561022457600080fd5b5061022d610b46565b6040518082600660200280838360005b8381101561025857808201518184015260208101905061023d565b5050505090500191505060405180910390f35b34801561027757600080fd5b5061029660048036038101908080359060200190929190505050610bc7565b604051808273ffffffffffffffffffffffffffffffffffffffff1673ffffffffffffffffffffffffffffffffffffffff16815260200191505060405180910390f35b3480156102e457600080fd5b506102ed610bfc565b6040518082815260200191505060405180910390f35b34801561030f57600080fd5b50610318610c02565b604051808267ffffffffffffffff1667ffffffffffffffff16815260200191505060405180910390f35b34801561034e57600080fd5b50610357610c1c565b604051808273ffffffffffffffffffffffffffffffffffffffff1673ffffffffffffffffffffffffffffffffffffffff16815260200191505060405180910390f35b6000606060008060089054906101000a900467ffffffffffffffff1667ffffffffffffffff1660085410151515610413576040517f08c379a0000000000000000000000000000000000000000000000000000000008152600401808060200182810382526000815260200160200191505060405180910390fd5b4243604051602001808381526020018281526020019250505060405160208183030381529060405291506002826040518082805190602001908083835b6020831015156104755780518252602082019150602081019050602083039250610450565b6001836020036101000a0380198251168184511680821785525050505050509050019150506020604051808303816000865af11580156104b9573d6000803e3d6000fd5b5050506040513d60208110156104ce57600080fd5b81019080805190602001909291905050509050600060089054906101000a900467ffffffffffffffff1667ffffffffffffffff16816001900467ffffffffffffffff1681151561051a57fe5b069250505090565b600080600080600060089054906101000a900467ffffffffffffffff1667ffffffffffffffff166008541015151561059d576040517f08c379a0000000000000000000000000000000000000000000000000000000008152600401808060200182810382526000815260200160200191505060405180910390fd5b6105a5610399565b925060028367ffffffffffffffff166006811015156105c057fe5b0160009054906101000a900473ffffffffffffffffffffffffffffffffffffffff1691506000809054906101000a900467ffffffffffffffff16600060089054906101000a900467ffffffffffffffff160267ffffffffffffffff169050600073ffffffffffffffffffffffffffffffffffffffff168273ffffffffffffffffffffffffffffffffffffffff16141515156106e9576040517f08c379a00000000000000000000000000000000000000000000000000000000081526004018080602001828103825260238152602001807f57696e6e65722063616e6e6f7420626520616e20696e76616c6964206164647281526020017f657373000000000000000000000000000000000000000000000000000000000081525060400191505060405180910390fd5b81600160006101000a81548173ffffffffffffffffffffffffffffffffffffffff021916908373ffffffffffffffffffffffffffffffffffffffff160217905550610732610c42565b508173ffffffffffffffffffffffffffffffffffffffff166108fc829081150290604051600060405180830381858888f19350505050158015610779573d6000803e3d6000fd5b5081935050505090565b6000809054906101000a900467ffffffffffffffff1681565b6000806000809054906101000a900467ffffffffffffffff1667ffffffffffffffff1634141515610835576040517f08c379a000000000000000000000000000000000000000000000000000000000815260040180806020018281038252600e8152602001807f56616c756520213d20507269636500000000000000000000000000000000000081525060200191505060405180910390fd5b60008361ffff1611801561086f57506001600060089054906101000a900467ffffffffffffffff160167ffffffffffffffff168361ffff16105b1515610909576040517f08c379a00000000000000000000000000000000000000000000000000000000081526004018080602001828103825260218152602001807f546f74616c207469636b65747320657863656564205469636b6574204c696d6981526020017f740000000000000000000000000000000000000000000000000000000000000081525060400191505060405180910390fd5b600073ffffffffffffffffffffffffffffffffffffffff1660028461ffff1660068110151561093457fe5b0160009054906101000a900473ffffffffffffffffffffffffffffffffffffffff1673ffffffffffffffffffffffffffffffffffffffff161415156109e1576040517f08c379a000000000000000000000000000000000000000000000000000000000815260040180806020018281038252600f8152602001807f496e76616c69642041646472657373000000000000000000000000000000000081525060200191505060405180910390fd5b600060089054906101000a900467ffffffffffffffff1667ffffffffffffffff16600854101515610aa0576040517f08c379a00000000000000000000000000000000000000000000000000000000081526004018080602001828103825260258152602001807f426f75676874207469636b657473206d6f7265207468616d205469636b65742081526020017f4c696d697400000000000000000000000000000000000000000000000000000081525060400191505060405180910390fd5b33905060016008600082825401925050819055508060028461ffff16600681101515610ac857fe5b0160006101000a81548173ffffffffffffffffffffffffffffffffffffffff021916908373ffffffffffffffffffffffffffffffffffffffff160217905550600060089054906101000a900467ffffffffffffffff1667ffffffffffffffff16600854101515610b3c57610b3a610522565b505b6001915050919050565b610b4e610d3a565b6002600680602002604051908101604052809291908260068015610bbd576020028201915b8160009054906101000a900473ffffffffffffffffffffffffffffffffffffffff1673ffffffffffffffffffffffffffffffffffffffff1681526020019060010190808311610b73575b5050505050905090565b600281600681101515610bd657fe5b016000915054906101000a900473ffffffffffffffffffffffffffffffffffffffff1681565b60085481565b600060089054906101000a900467ffffffffffffffff1681565b600160009054906101000a900473ffffffffffffffffffffffffffffffffffffffff1681565b600080600060089054906101000a900467ffffffffffffffff1667ffffffffffffffff1660085410151515610cba576040517f08c379a0000000000000000000000000000000000000000000000000000000008152600401808060200182810382526000815260200160200191505060405180910390fd5b6000600881905550600090505b6001600060089054906101000a900467ffffffffffffffff160167ffffffffffffffff16811015610d3257600281600681101515610d0157fe5b0160006101000a81549073ffffffffffffffffffffffffffffffffffffffff02191690558080600101915050610cc7565b600191505090565b60c0604051908101604052806006906020820280388339808201915050905050905600a165627a7a72305820a80ca1ac69478a53d5021ae1d76038ff44f462ca1309cac4d3be0101028fc75e0029",
  "source": "pragma solidity ^0.4.25;\n\n\ncontract Lottery {\n\n    event LotteryTicketPurchased(address indexed _purchaser, uint256 _ticketID);\n    event LotteryAmountPaid(address indexed _winner, uint64 _ticketID, uint256 _amount);\n\n    \n    uint64 public ticketPrice = 1500000000000000000 wei;\n    uint64 public ticketMax = 5;\n    address public winnerAddress;\n\n\n    address[6] public ticketMapping;\n    uint256 public ticketsBought = 0;\n\n\n    modifier allTicketsSold() {\n        require(ticketsBought >= ticketMax,\"\");\n        _;\n    }\n\n\n    function() public payable {\n        revert(\"Revert Transaction\");\n    }\n\n    function buyTicket(uint16 _ticket) public payable returns (bool) {\n        require(msg.value == ticketPrice,\"Value != Price\");\n        require(_ticket > 0 && _ticket < ticketMax + 1,\"Total tickets exceed Ticket Limit\");\n        require(ticketMapping[_ticket] == address(0),\"Invalid Address\");\n        require(ticketsBought < ticketMax,\"Bought tickets more tham Ticket Limit\");\n\n        address purchaser = msg.sender;\n        ticketsBought += 1;\n        ticketMapping[_ticket] = purchaser;\n\n        if (ticketsBought>=ticketMax) {\n            sendReward();\n        }\n\n        return true;\n    }\n\n   \n    function sendReward() public allTicketsSold returns (address) {\n        uint64 winningNumber = lotteryPicker();\n        address winner = ticketMapping[winningNumber];\n        uint256 totalAmount = ticketMax * ticketPrice;\n\n\n        require(winner != address(0),\"Winner cannot be an invalid address\");\n\n        winnerAddress = winner; \n        reset();\n        winner.transfer(totalAmount);\n        \n        return winner;\n    }\n\n\n    function lotteryPicker() public view allTicketsSold returns (uint64) {\n        bytes memory entropy = abi.encodePacked(block.timestamp, block.number);\n        bytes32 hash = sha256(entropy);\n        return uint64(hash) % ticketMax;\n    }\n\n\n    function reset() private allTicketsSold returns (bool) {\n        ticketsBought = 0;\n        for(uint x = 0; x < ticketMax+1; x++) {\n            delete ticketMapping[x];\n        }\n        return true;\n    }\n\n    function getTicketsPurchased() public view returns(address[6]) {\n        return ticketMapping;\n    }\n}\n",
  "sourcePath": "/home/arjunmenon/infinity/infinity/contracts/Lottery.sol",
  "compiler": {
    "name": "solc",
    "version": "0.4.25+commit.59dbf8f1.Emscripten.clang"
  },
  "schemaVersion": "2.0.2",
  "updatedAt": "2019-03-02T18:21:32.349Z"
}